:020000040000FA
:100000000128043092008316203087008312870174
:1000100085018316FF30920083120030930083160F
:10002000DF30870083120C30950083128701113076
:100030009F00831660309F000330870030309100AE
:1000400083123830C20011309F009F149F18262859
:100050001E08C00015309F009F149F182D281E08F1
:10006000C4004408343C03183A294408683C031887
:10007000CB294408993C0318332A4408CC3C031884
:10008000C42A4408FF3C031845284008023C0318D2
:100090002D2B4008063C0318322B40080B3C03185C
:1000A000372B40080F3C03183C2B4008133C031827
:1000B000412B4008173C0318462B40081C3C0318F2
:1000C0004B2B4008203C0318502B4008243C0318BD
:1000D000552B4008283C03185A2B40082D3C031888
:1000E0005F2B4008313C0318642B4008353C031853
:1000F000692B4008393C03186E2B40083E3C03181E
:10010000732B4008423C0318782B4008463C0318E8
:100110007D2B40084A3C0318822B40084F3C0318B3
:10012000872B4008533C03188C2B4008573C03187E
:10013000912B40085B3C0318962B4008603C031849
:100140009B2B4008643C0318A02B4008683C031814
:10015000A52B40086C3C0318AA2B4008713C0318DF
:10016000AF2B4008753C0318B42B4008793C0318AA
:10017000B92B40087D3C0318BE2B4008823C031875
:10018000C32B4008863C0318C82B40088A3C031840
:10019000CD2B40088E3C0318D22B4008933C03180B
:1001A000D72B4008973C0318DC2B40089B3C0318D6
:1001B000E12B40089F3C0318E62B4008A43C0318A1
:1001C000EB2B4008A83C0318F02B4008AC3C03186C
:1001D000F52B4008B03C0318FA2B4008B53C031837
:1001E000FF2B4008B93C0318042C4008BD3C031801
:1001F000092C4008C13C03180E2C4008C63C0318CB
:10020000132C4008CA3C0318182C4008CE3C031895
:100210001D2C4008D23C0318222C4008D73C031860
:10022000272C4008DB3C03182C2C4008DF3C03182B
:10023000312C4008E33C0318362C4008E83C0318F6
:100240003B2C4008EC3C0318402C4008F03C0318C1
:10025000452C4008F43C03184A2C4008F93C03188C
:100260004F2C4008FD3C0318542C4008FF3C031859
:10027000592C23284008043C03182D2B40080D3C22
:100280000318372B4008133C0318412B40081A3C35
:100290000318462B4008223C0318502B40082B3CE7
:1002A00003185A2B4008313C0318642B4008373C94
:1002B0000318692B4008403C0318732B4008463C48
:1002C00003187D2B40084D3C0318822B4008553CF9
:1002D00003188C2B40085E3C0318962B4008643CA6
:1002E0000318A02B40086A3C0318A52B4008733C58
:1002F0000318AF2B4008793C0318B92B4008803C09
:100300000318BE2B4008883C0318C82B4008913CBA
:100310000318D22B4008973C0318DC2B40089D3C67
:100320000318E12B4008A63C0318EB2B4008AC3C1B
:100330000318F52B4008B33C0318FA2B4008BB3CCC
:100340000318042C4008C43C03180E2C4008CA3C77
:100350000318182C4008D03C03181D2C4008D93C29
:100360000318272C4008DF3C0318312C4008E63CDA
:100370000318362C4008EE3C0318402C4008F73C8C
:1003800003184A2C4008FD3C0318542C4008033C39
:100390000318592C23284008043C03182D2B40082F
:1003A0000D3C0318372B4008173C0318412B40081D
:1003B000223C0318502B40082D3C03185A2B4008B0
:1003C000373C0318692B4008403C0318732B400846
:1003D0004A3C03187D2B4008553C03188C2B4008E1
:1003E000603C0318962B40086A3C0318A52B400874
:1003F000733C0318AF2B40087D3C0318B92B400811
:10040000883C0318C82B4008933C0318D22B4008A3
:100410009D3C0318E12B4008A63C0318EB2B400839
:10042000B03C0318F52B4008BB3C0318042C4008D3
:10043000C63C03180E2C4008D03C03181D2C400865
:10044000D93C0318272C4008E33C0318312C400802
:10045000EE3C0318402C4008F93C03184A2C400895
:10046000033C0318592C4008043C03182D2B40086A
:100470000B3C0318372B4008113C03183C2B400859
:100480001A3C0318462B4008203C0318502B400808
:10049000263C0318552B40082F3C03185F2B4008BF
:1004A000373C0318692B40083E3C0318732B400867
:1004B000443C0318782B40084D3C0318822B40081D
:1004C000533C03188C2B4008593C0318912B4008CF
:1004D000623C03189B2B40086A3C0318A52B40087C
:1004E000713C0318AF2B4008773C0318B42B40082D
:1004F000803C0318BE2B4008863C0318C82B4008DC
:100500008C3C0318CD2B4008953C0318D72B400892
:100510009D3C0318E12B4008A43C0318EB2B40083A
:10052000AA3C0318F02B4008B33C0318FA2B4008F0
:10053000B93C0318042C4008BF3C0318092C4008A0
:10054000C83C0318132C4008D03C03181D2C40084D
:10055000D73C0318272C4008DD3C03182C2C4008FE
:10056000E63C0318362C4008EC3C0318402C4008AD
:10057000F23C0318452C4008FB3C03184F2C400864
:10058000033C0318592C23284008063C03182D2B44
:100590004008113C03183C2B40081A3C0318462B1A
:1005A0004008243C0318502B40082F3C03185F2BB5
:1005B0004008393C0318692B4008443C0318782B49
:1005C00040084D3C0318822B4008573C03188C2BE5
:1005D0004008623C03189B2B40086C3C0318A52B79
:1005E0004008773C0318B42B4008803C0318BE2B0E
:1005F00040088A3C0318C82B4008953C0318D72BA9
:1006000040089F3C0318E12B4008AA3C0318F02B3C
:100610004008B33C0318FA2B4008BD3C0318042CD7
:100620004008C83C0318132C4008D23C03181D2C6A
:100630004008DD3C03182C2C4008E63C0318362CFF
:100640004008F03C0318402C4008FB3C03184F2C9A
:100650004008053C0318592C2328003093009512BC
:1006600015122328043093009512151623280930FB
:1006700095161512930023280D3093009516151624
:10068000232811309300151295122328153093005A
:100690009512151623281930930095161512232844
:1006A0001E309300951615162328223093009512BC
:1006B00015122328263093009512151623282B3067
:1006C00093009516151623282F30930095121512B6
:1006D00023283330930095121516232837309300C2
:1006E0009516151223283B309300951615162328CE
:1006F0004030930095121512232844309300951230
:1007000015162328483093009516151223284C30CF
:100710009300951215122328513093009512151647
:10072000232855309300951615122328593093002D
:100730009516151623285D30930095161516232857
:10074000623093009512151223286630930095129B
:10075000151623286A3093009516151223286E303B
:1007600093009516151623287330930095121512D1
:100770002328773093009512151623287B30930099
:1007800095161512232880309300951215122328F0
:1007900084309300951215162328883093009516FF
:1007A000151223288C3093009516151623289130A6
:1007B0009300951215122328953093009512151663
:1007C0002328993093009516151223289D30930005
:1007D000951615162328A23093009512151223287A
:1007E000A6309300951215162328AA30930095166B
:1007F00015122328AE309300951615162328B33012
:100800009300951215122328B730930095121516F0
:100810002328BB309300951615122328BF30930070
:10082000951615162328C430930095121512232807
:10083000C8309300951215162328CC3093009516D6
:1008400015122328D0309300951615162328D5307D
:100850009300951215162328D9309300951615127A
:100860002328DD309300951615162328E1309300D8
:10087000951215122328E630930095121516232899
:10088000EA309300951215122328EE309300951646
:1008900015122328F2309300951215122328F630F2
:1008A0009300951215162328FB3093009516151208
:0C08B0002328FF3093009516151623280E
:00000001FF
